:020000040000FA
:10000000A0180020410200004D0200004F02000035
:1000100000000000000000000000000000000000E0
:10002000000000000000000000000000510200007D
:100030000000000000000000BF010000191A0000CD
:10004000570200005702000057020000570200004C
:10005000570200005702000057020000570200003C
:100060005702000057020000911A000057020000DA
:100070005702000000000000000000000000000027
:10008000570200005702000057020000570200000C
:10009000000000005702000057020000091D000088
:1000A0005702000057020000000000005702000045
:1000B0005702000057020000000000005702000035
:1000C00000F002F800F050F80CA030C808382418EE
:1000D0002D18A246671EAB4654465D46AC4201D180
:1000E00000F042F87E460F3E0FCCB6460126334262
:1000F00000D0FB1AA246AB463343184754480000D1
:1001000084480000103A02D378C878C1FAD8520760
:1001100001D330C830C101D504680C6070470000BD
:100120000023002400250026103A01D378C1FBD813
:10013000520700D330C100D50B60704710B5752948
:1001400002D100F067F910BD632902D100F00AFD69
:1001500010BD732902D100F00DFD10BD002010BDAF
:100160001FB51FBD10B510BD00F086FD1146FFF78D
:10017000F7FF02F087FA00F09EFD03B4FFF7F2FFED
:1001800003BC00F0D3FD0000084B1968086820305C
:1001900080F30988022080F31488BFF36F8F3FBC7F
:1001A000AE4608BC04BC62B61847000064030020D9
:1001B000EFF3108072B6704780F310887047EFF34A
:1001C00009800E4B1A6820381060F0C044464D4636
:1001D00056465F46F0C008B572B603F0E3FC62B65F
:1001E0000CBC116808681030F0C8A046A946B24699
:1001F000BB4680F309882038F0C818476403002004
:1002000070B505460C46164602E00FCC0FC5103EF1
:10021000102EFAD2082E02D303CC03C5083E042EBA
:1002200007D301CC01C5361F03E021782970641C77
:100230006D1C761EF9D270BD72B6704762B67047FB
:10024000054880470548804705480047FEE7FEE728
:10025000FEE7FEE7FEE7FEE765020000551A000034
:10026000C100000000B500BF00BF00BF00BF00BF5D
:1002700019481A4901601A481A4F00F010F81A4834
:100280001A4F00F00CF81A481A4F00F008F81A48F4
:100290001A4F00F004F810481949016000BD00B57C
:1002A000184A0168914203D10168914200D112E0DD
:1002B000154D164C0A0022400B0A2340D2180B0C95
:1002C0002340D21822400B0E9A4203D0013D02D0A7
:1002D0000168EFE7396000BD80000040699655AACB
:1002E00024011000A400004028011000A8000040D4
:1002F0002C0110009C00004030011000A0000040C4
:1003000000000000FFFFFFFF03000000FF000000EF
:1003100002480349014A034B70470000A014002023
:10032000A0180020A01400200FB41CB5084B06AA8A
:100330007B4469460090059800F0F1FB04460020DC
:10034000694600F0FFFB20461CBC08BC04B01847FF
:1003500011080000F8B50E46044600202062204631
:10036000E1688847002829D0252802D06268A16862
:1003700020E0E16820460027884705001ED0284677
:100380004138192802D80127FF022035324620467D
:1003900027602946FFF7D2FE002808D0012804D0A4
:1003A000F61DF608F6000836D9E7361DD7E762686D
:1003B0002846A1689047206A401CCFE7206AF8BD14
:1003C00070B50C460546012A05D02878800600D570
:1003D000EA69002302E0012305E05B1C934202D29C
:1003E000E05C0028F9D1A869E618C01AA861286A5B
:1003F000C01828622846C046C04604E06A682078D3
:10040000A968641C9047B442F8D32846C046C04649
:1004100070BD0000F7B5002575291068009914A675
:1004200011D0C046C046002802DA404211A608E0BA
:10043000009909688A0701D50FA602E0490704D58B
:100440000EA6012501E0C046C046009F00242437C7
:1004500004E000F093FB30313955641C0028F8D1DA
:100460002B4632462146009800F0FBFAFEBD000004
:10047000000000002D0000002B0000002000000004
:1004800030B505460B462A461C781078521C5B1C7A
:10049000002801D0A042F7D0002C03D0002802D0C1
:1004A0006D1CEFE7284630BD30B5441C03E00178F1
:1004B000401C00290DD08107F9D10B4BDD0104C888
:1004C000D11A91432940FAD0001B0A0603D0C01E5E
:1004D00030BD001B30BD0A0401D0801E30BD0902B2
:1004E000FCD0401E30BD000001010101421E5378C6
:1004F000521C002BFBD10B78491C1370521C002B93
:10050000F9D17047F8B5042A2CD3830712D00B78A1
:10051000491C0370401C521E83070BD00B78491CEA
:100520000370401C521E830704D00B78491C0370D3
:10053000401C521E8B079B0F05D0C91ADF002023D9
:10054000DE1B08C90AE0FFF75BFEF8BD1D4608C9BF
:10055000FD401C46B4402C4310C0121F042AF5D2A3
:10056000F308C91A521EF0D40B78491C0370401CC2
:10057000521EEAD40B78491C0370401C012AE4D4B3
:1005800009780170F8BDD2B210B513029A1813049D
:100590009A1800F00EF810BD01E004C0091F0429EC
:1005A000FBD28B0701D50280801CC90700D00270E6
:1005B000704700290BD0C30702D00270401C491EAF
:1005C000022904D3830702D50280801C891EE3E739
:1005D0000022EEE70022DFE7F8B507460B46394672
:1005E0001943890713D1164CE601042A0FD302CB15
:1005F0000D1B8D43354202D102C0121FF5E7CBB26D
:100600000370401C521E002B13D0090AF7E7002A82
:1006100014D01978521E5B1C0170401C002908D0B0
:10062000002A0BD01978521E5B1C0170401C002957
:10063000EDD1002A02D01146FFF7CAFF3846F8BDB7
:1006400001010101002203098B422CD3030A8B42D2
:1006500011D300239C464EE003460B433CD40022BA
:1006600043088B4231D303098B421CD3030A8B42CC
:1006700001D394463FE0C3098B4201D3CB01C01A9A
:10068000524183098B4201D38B01C01A5241430965
:100690008B4201D34B01C01A524103098B4201D353
:1006A0000B01C01A5241C3088B4201D3CB00C01AC0
:1006B000524183088B4201D38B00C01A5241430838
:1006C0008B4201D34B00C01A5241411A00D201465D
:1006D0005241104670475DE0CA0F00D049420310F6
:1006E00000D34042534000229C4603098B422DD345
:1006F000030A8B4212D3FC22890112BA030A8B42ED
:100700000CD3890192118B4208D3890192118B423B
:1007100004D389013AD0921100E08909C3098B42C0
:1007200001D3CB01C01A524183098B4201D38B0103
:10073000C01A524143098B4201D34B01C01A5241A6
:1007400003098B4201D30B01C01A5241C3088B42EB
:1007500001D3CB00C01A524183088B4201D38B00D6
:10076000C01A5241D9D243088B4201D34B00C01A60
:100770005241411A00D20146634652415B10104675
:1007800001D34042002B00D54942704763465B10BD
:1007900000D3404201B50020C046C04602BD7047AC
:1007A000704770470246C80FC00781434B0030B501
:1007B0004B405B009B0D20D01923DB06C918012399
:1007C0001B05994220DB0324A40704251346AB40F4
:1007D0000BD3002B04D1EB0613409B00E34204D45F
:1007E00001246407002312195941FF231B05994274
:1007F0000BD2C9000143500F09E0CB0204D50143DD
:100800000803024305D0054830BDFF21C905084350
:1008100030BD084607210905884330BD0000C07F70
:100820000121C9050123411842001B06D3185B0EA4
:100830000AD0C1100722D206891840075242D1427D
:1008400001D5520089187047090208D50146002ACF
:1008500003D0C10FC90700207047104670474202FD
:1008600002D0002002497047072109050143F4E73F
:100870000000F87FF0B5FF252D04C609C209FF2747
:1008800004462E400137CB093E4348402A402B40C6
:100890000746002A6BD0002B69D0AA4267D0AB4232
:1008A00065D0002800DA32460125ED0529432C43A6
:1008B00009022002090AD21A4B0C7F24E31A434C86
:1008C000000A7C44E35C7D242404121914145B00A8
:1008D000A218884201D3521C00E0400049420C4655
:1008E0005C4324115C43DB016415E318040A5C4398
:1008F000C502200D0C4644436419250A5D432303B9
:10090000EC0C0D46654300030019EB184C42A34262
:1009100001D35B18401CD4052018002B07D05B00C6
:10092000C91804D3401C002901D1400840003F21D0
:1009300089048A4209D3002A08DC1106090F04D071
:10094000032149074018C00FC007F0BD0122410034
:10095000120689187F2252069142F6D205214907D4
:10096000C84201D59010F0BDFF20C005F0BD002F9A
:1009700000DA32461648AA4207D2AB4205D2190223
:10098000090E17D0F80FC007F0BDFF2563002D0634
:10099000AB42F9D84900A942F6D8AB4201D1A942ED
:1009A000F2D0A94201D1002101E061004908D0053F
:1009B0000843F0BD1102090EFBD0FF200243D00511
:1009C000F0BD0A460146104654E700004A400000C8
:1009D0000000C07F0102C21504D00123DB071943C8
:1009E000002A0ADB9E239A1A02D40846D040704798
:1009F000FF2241001206914201D900207047C01722
:100A0000C04370471F22030C02D10F2200041CD0E8
:100A1000030E01D10002083A030F01D10001121F99
:100A2000830F01D18000921E002801DB4000521E7E
:100A3000D2055118021251181922904004D3491CB2
:100A4000002801D14908490008467047C10FC9076D
:100A500000D04042012292071143D3E701218907C8
:100A6000D0E7FFB504460D4681B0243000902168E0
:100A7000880604D51022E0699143216000E001203E
:100A8000A84201DD471B00E000270498A1697A19FC
:100A90001018081AA0612078C00602D42046C0466B
:100AA000C046002608E003986268A168805D904710
:100AB000206A401C761C206204988642F3DB207872
:100AC000C0060AD52046C046C04606E06268A16856
:100AD00030209047206A401C206238467F1E002844
:100AE000F4DC07E000986268A168405D9047206AE6
:100AF000401C206228466D1E0028F3DC2046C046BC
:100B0000C0462078000602D5022005B0F0BD0120C5
:100B1000FBE7000001694A1C02610878704700B5D4
:100B20008FB0029100210591054901937944039109
:100B3000114604906846FFF70DFC0FB000BD0000A1
:100B4000E5FFFFFF0A681070521C0A60704710B57D
:100B50004369002B02D0C046C04601E0FFF730FCDD
:100B6000012010BD1278014624310A7000224A701B
:100B70000122ECE711680022D243E8E70146800831
:100B8000081A02091018020A1018020C1018C008DE
:100B9000820012185200891A01E0401C0A390A2901
:100BA000FBD27047F8B5224C4E00069DA6420AD8EB
:100BB000A64201D1002806D15E00A64203D8A64273
:100BC0000AD1002A08D00D24240425422CD029461D
:100BD000002000F02FF8F8BD0C461C430CD49942BD
:100BE00002D0EFF30080F8BD904202D0EFF3008016
:100BF000F8BDEFF30080F8BD09242407E5008B421F
:100C000006D0EFF30080A043591A06D2284304E02F
:100C1000101A05D3EFF30080A04380F30088F8BDDD
:100C2000EFF30080A043F1E7009500F01BF8F8BD5A
:100C30000000E0FFC80212D54803400F002804D08E
:100C4000C803C043012188407047EFF300800001D2
:100C5000000903210907084380F30088704700203A
:100C60007047000010B500200249029A00F02BF8EE
:100C700010BD00000000F87F754600F053F8AE4646
:100C8000050069465346C008C000854618B020B527
:100C9000FFF73EFB60BC00274908B6460026C0C5EA
:100CA000C0C5C0C5C0C5C0C5C0C5C0C5C0C5403D24
:100CB00049008D46704710B50446C046C0462046E0
:100CC000FFF75BFA10BD10B50C461107090F092993
:100CD00004D00A290AD008290CD104E011460820C2
:100CE000FFF7A8FF06E0510606D501E0510601D541
:100CF0000120C007214610BDD10607D50101090911
:100D0000CC084907000E0006044309E0410F200209
:100D10004907000A0143200E00061D22D14101436C
:100D20000846E7E7004870473C14002001491820B6
:100D3000ABBEFEE726000200704770B58C18057840
:100D4000401C6B075B0F01D10378401C2A1106D1B0
:100D50000278401C03E00678401C0E70491C5B1EA4
:100D6000F9D12B0705D40023521E0DD40B70491C5A
:100D7000FAE70378401CCB1A921C03E01D780D7033
:100D8000491C5B1C521EF9D5A142D8D3002070BD6E
:100D900003B40148019001BDCD01002003B4014816
:100DA000019001BD190000201CB5002168460170AA
:100DB00081704170C170017169460F2000F082F8A6
:100DC00000210F2000F098FC1CBD00B501460B006F
:100DD00001F0F6F92E181A1C1E20222426282A2C8F
:100DE0002E30323436383A3C3E40424446484A4C33
:100DF0004E50525456585A5C5E60626466686A6C23
:100E00006E70727400205BE0012059E0022057E010
:100E1000032055E0042053E0052051E006204FE078
:100E200007204DE008204BE0092049E00A2047E078
:100E30000B2045E00C2043E00D2041E000203FE086
:100E400001203DE002203BE0032039E0042037E0B0
:100E5000052035E0062033E0072031E008202FE0B0
:100E600009202DE00A202BE00B2029E00C2027E0B0
:100E70000D2025E00E2023E00F2021E010201FE0B0
:100E800011201DE012201BE0132019E0142017E0B0
:100E9000152015E0162013E0172011E018200FE0B0
:100EA00019200DE01A200BE01B2009E01C2007E0B0
:100EB0001D2005E01E2003E01F2001E0002000BFF0
:100EC00000BF00BD30B505460C46207801280CD186
:100ED0000121284600F0DCFB0121284600F05AF8E9
:100EE0000021284600F07CF81FE00021284600F091
:100EF000CFFB6178284600F04DF8A178284600F035
:100F00006FF86078002808D1E178284600F024FBCB
:100F10002179284600F00AF807E06179284600F0B8
:100F200083FBA179284600F04BFB30BD30B5054668
:100F30000C462846FFF749FF02460D2D11DC002C18
:100F400007D1134840680121914088431049486007
:100F50001CE00F4840680121914008430C4948605B
:100F600014E0002C09D10A488038416801209040E3
:100F7000814307488038416008E005488038406870
:100F800001219140084302498039486030BD00008A
:100F9000C004004030B505460C462846FFF715FF53
:100FA00002460D2D0BDC012C04D1012090400B4991
:100FB000886111E0012090400849C8610CE0012CD3
:100FC00005D10120904005498039886104E0012065
:100FD000904002498039C86130BD00008004004063
:100FE00030B50246002906D0012906D0022906D0D4
:100FF000032908D105E0002007E0012005E00220D8
:1010000003E0032001E0002000BF00BF130001F057
:10101000D7F82E18222D3A4754616E7B85909DAAF1
:10102000B7C4F0FDEDECEBEAE9E8E7E6E5E4E3E27E
:10103000E1E0DFDEDDDCDBDAD9D8D7D6D5D4D3D218
:10104000D1D0FC4B5B6A9B089B008407A40F234311
:10105000F84C63627BE2F74B5B6A3024A3430401E4
:1010600030252C402343F34C636270E2F14B5B6A02
:1010700003242402A343040203252D022C4023430E
:10108000EC4C636263E2EB4B5B6A03242403A343EF
:10109000040303252D032C402343E64C636256E2F0
:1010A000E44B5B6A03242404A343040403252D04B6
:1010B0002C402343DF4C636249E2DE4B5B6A03242E
:1010C0002405A343040503252D052C402343D94CB7
:1010D00063623CE2D74B5B6A03242406A343040605
:1010E00003252D062C402343D24C63622FE2D14BC3
:1010F0005B6A03242407A343040703252D072C4020
:101100002343CC4C636222E2CA4B9B6A9B089B0040
:101110008407A40F2343C74CA36218E2C54B9B6A04
:101120003024A343040130252C402343C14CA36247
:101130000DE2C04B9B6A03242402A343040203254F
:101140002D022C402343BB4CA36200E2B94B9B6AA7
:1011500003242403A343040303252D032C4023432A
:10116000B44CA362F3E1B34B9B6A03242404A3436E
:10117000040403252D042C402343AE4CA362E6E176
:10118000AC4B9B6A03242405A343040503252D05CA
:101190002C402343A74CA362D9E1A64B803B5B6A5A
:1011A0009B089B008407A40F2343A24C803C6362EE
:1011B000CDE1CBE1BDE1AFE1A1E193E185E177E1F3
:1011C0006BE160E152E144E136E123E113E103E147
:1011D000F5E0E8E0D8E0C8E0B8E0A8E098E088E012
:1011E0007AE06DE05DE04DE03DE02DE01DE00DE0DA
:1011F000FFE7904B803B5B6A3024A343040130251A
:101200002C4023438B4C803C6362A0E1894B803BA4
:101210005B6A03242402A343040203252D022C400D
:101220002343844C803C636291E1824B803B5B6A48
:1012300003242403A343040303252D032C40234349
:101240007C4C803C636282E17A4B803B5B6A032486
:101250002404A343040403252D042C402343754C8C
:10126000803C636273E1734B803B5B6A032424051B
:10127000A343040503252D052C4023436D4C803CDE
:10128000636264E16B4B803B5B6A03242406A343E7
:10129000040603252D062C402343664C803C6362E4
:1012A00055E1644B803B5B6A03242407A343040796
:1012B00003252D072C4023435E4C803C636246E1AE
:1012C0005C4B803B9B6A9B089B008407A40F2343D5
:1012D000584C803CA3623AE1564B803B9B6A3024D9
:1012E000A343040130252C402343524C803CA3628D
:1012F0002DE1504B803B9B6A03242402A34304024C
:1013000003252D022C4023434A4C803CA3621EE15E
:10131000484B803B9B6A03242403A3430403032517
:101320002D032C402343434C803CA3620FE1414BEF
:10133000803B9B6A03242404A343040403252D0457
:101340002C4023433B4C803CA36200E1394B803B63
:101350009B6A03242405A343040503252D052C4083
:101360002343344C803CA362F1E0324B803B9B6AC8
:1013700003242406A343040603252D062C402343FF
:101380002C4C803CA362E2E02A4B803B9B6A032406
:101390002407A343040703252D072C402343254C92
:1013A000803CA362D3E0234B803BDB6A9B089B001D
:1013B0008407A40F23431F4C803CE362C7E01D4B0E
:1013C000803BDB6A3024A343040130252C402343B7
:1013D000184C803CE362BAE0164B803BDB6A032486
:1013E0002402A343040203252D022C402343114C65
:1013F000803CE362ABE00F4B803BDB6A03242403B9
:10140000A343040303252D032C402343094C803CB4
:10141000E3629CE0074B803BDB6A03242404A34384
:10142000040403252D042C402343024C803CE3623A
:101430008DE0000080040040464BDB6A0324240555
:10144000A343040503252D052C402343414CE362AF
:101450007DE0404BDB6A03242406A34304060325F6
:101460002D062C4023433B4CE36270E0394BDB6A92
:1014700003242407A343040703252D072C402343FB
:10148000344CE36263E0334B1B6B9B089B00840787
:10149000A40F23432F4C236359E02E4B1B6B3024A6
:1014A000A343040130252C4023432A4C23634EE000
:1014B000284B1B6B03242402A343040203252D02A3
:1014C0002C402343234C236341E0224B1B6B03241A
:1014D0002403A343040303252D032C4023431D4C65
:1014E000236334E01B4B1B6B03242404A343040439
:1014F00003252D042C402343164C236327E0154B72
:101500001B6B03242405A343040503252D052C4050
:101510002343104C23631AE00E4B1B6B0324240659
:10152000A343040603252D062C402343094C2363C3
:101530000DE0084B1B6B03242407A343040703257A
:101540002D072C402343034C236300E000BF00BF62
:1015500030BD00000004004030B505460C4628466A
:10156000FFF733FC02460D2D11DC002C07D1134888
:10157000806B012191408843104988631CE00F482B
:10158000806B0121914008430C49886314E0002CD2
:1015900009D10A488038816B012090408143074877
:1015A0008038816308E005488038806B01219140D4
:1015B000084302498039886330BD00008004004040
:1015C00030B505460C462846FFF7FFFB02460D2DB9
:1015D00011DC002C07D11348006801219140884399
:1015E000104908601CE00F48006801219140084341
:1015F0000C49086014E0002C09D10A4880380168C1
:1016000001209040814307488038016008E0054888
:101610008038006801219140084302498039086000
:1016200030BD0000C004004030B505460C462846D9
:10163000FFF7CBFB02460D2D11DC002C07D1134820
:10164000C06B0121914088431049C8631CE00F48DA
:10165000C06B0121914008430C49C86314E0002C81
:1016600009D10A488038C16B012090408143074866
:101670008038C16308E005488038C06B0121914083
:10168000084302498039C86330BD0000800400402F
:1016900030B505460C462846FFF797FB02460D2D50
:1016A00011DC002C07D11348406B01219140884385
:1016B000104948631CE00F48406B012191400843EA
:1016C0000C49486314E0002C09D10A488038416B6A
:1016D00001209040814307488038416308E0054875
:1016E0008038406B012191400843024980394863AA
:1016F00030BD00008004004030B505460C46284649
:10170000FFF763FB02460D2D0BDC012C04D10120F9
:1017100090400B49886011E0012090400849C86062
:101720000CE0012C05D101209040054980398860EA
:1017300004E00120904002498039C86030BD0000BB
:1017400080040040F0B58BB0242101A8FEF742FFD1
:101750000A2002F035F93A4800F0ACFA0A2002F00B
:101760002FF9384800F0A6FA0A2002F029F9364B82
:10177000002236A1374800F031FD002801D10BB01E
:10178000F0BD3548006801210904884332490860EA
:101790000846006840084000086030A13048FEF765
:1017A0006FFE0A90002800D1E9E72EA12C48FEF731
:1017B00067FE04462CA12A48FEF762FE0546002C6F
:1017C00001D0002D07D129A000F074FA642002F0A6
:1017D000F7F80020D3E7601CFEF766FE0746681E98
:1017E000FEF762FE381A461C3246611C01A8FEF75D
:1017F000F3FE01AA23A12548FEF796FD14212348F4
:101800003038FFF7C5FA462002F0DAF814211F48F5
:101810003038FFF7BDFA642002F0D2F80E480068B5
:1018200001210904884340180B49086008460068F4
:1018300040084000401C086001F0D6FD01209EE7F2
:101840009C0200208C020020881300002B434D478F
:101850004C3A000075020020006000402B38360032
:101860000C0400203C0000003E00000041542B43CB
:101870004D4744413D2244454C20414C4C220D0AE9
:101880000000000025730D0A00000000EC0300209A
:1018900010B5054802F094F8044800F00BFA7D20DA
:1018A000000102F08DF810BDB80B0000FE02002010
:1018B00008B5002000902C4B00222CA12C4800F0F1
:1018C0008DFC002804D12B480078401C2949087061
:1018D0007D239B01002225A1274800F07FFC00907A
:1018E000002804D123480078401C22490870214870
:1018F00000780A2804DD00201E49087001F074FDFC
:101900006846007801281DD100201A4908701B483C
:1019100000F0D0F91920400102F052F8184B0022D3
:1019200018A11B4800F05AFC00906946087801286D
:1019300017D0184800F0BEF90A2002F041F8002044
:1019400000900EE0144800F0B5F9642002F038F879
:10195000104800F0AFF97D20C00002F031F80020FF
:1019600000906846007808BD881300004F4B0000C7
:10197000A802002035030020BA020020C502002082
:1019800010270000434F4E4E454354204F4B00005C
:10199000D0020020280300201A03002010B5FFF712
:1019A00003FA02F0CDF901F063FE00F023F900F034
:1019B0008BFA10BD30B50B460021002A21D0154C02
:1019C00003252D0264198510AD0061598407E50EC9
:1019D000FF24AC400D46A54329469C07240E8507ED
:1019E000ED0EAC4021430B4C03252D0264198510EC
:1019F000AD006151C506ED0E0124AC40054D2C60D3
:101A000006E0C506ED0E0124AC40024D80352C6089
:101A100030BD000000E100E010B50C48006800286F
:101A200004D00A480068401E08490860FEF7C0FB61
:101A3000044602F0D1FC002803D00120000704492D
:101A400048602046FEF7B8FB10BD00006002002091
:101A500000ED00E01CB50B480B490860E120800058
:101A600000900021684601710121417100218171BE
:101A700000F06EFB0548806840084000401C0349A8
:101A800088601CBD51E5CC1A001D0040001C0040C0
:101A900010B501210C4800F02CF8002813D00121CA
:101AA000094800F019F809480068401C0749086017
:101AB000084600680649884205D3002005490860A9
:101AC000014800F00BF810BD002800404003002042
:101AD000E7030000440300204162704701694908A0
:101AE000490001617047016949084900491C0161C9
:101AF000704702460020536A0B40002B01D00120A2
:101B000000E000207047000010B5054B002205A141
:101B100007A000F063FB012800D110BD0020FCE706
:101B200088130000434F4E4E454354204F4B000056
:101B300041542B4349505354415455530D0A00000E
:101B400070B500202449087024490870244800F02A
:101B5000B1F8642001F034FF224800F0ABF81A20FD
:101B600000F09AF87D2189011FA000F06BFC05466A
:101B7000012D2FD100240020174908701749087043
:101B80001FE01848005D7B2804D113480078401CF2
:101B9000114908701348005D7D2804D10F48007872
:101BA000401C0E490870601CC4B20B4800780B49F9
:101BB0000978884205D108480078002801D0012022
:101BC00070BDDB2C03DA0748005D0028D9D1054839
:101BD00000F070F80020F3E75203002053030020C8
:101BE0000D0300200C040020524543562046524F5E
:101BF0004D3A000000B587B000216846017501210B
:101C0000817500214175C1750121017605A9252045
:101C1000FFF758F90021684601750121817541756A
:101C200000214176817605A92420FFF74BF9E120B8
:101C3000400203900121684601740021C1710172C4
:101C400001714171817101A9124800F0BBF90021B5
:101C5000104800F075FA00210E4800F067FA0122E2
:101C600011040C4800F0A4F9012211461720FFF7D7
:101C7000A1FE08480068012109048843401805496D
:101C800008600846006840084000401C08600120C9
:101C900007B000BD0060004000BF0549C969890464
:101CA000C90F0029F9D10249203908707047000096
:101CB0004060004000B5024600200D4908700D4903
:101CC000087001200C4908700C4908700C49087014
:101CD00003E01078FFF7E0FF521C10780028F8D1DD
:101CE00000BF084840698006C00F0028F9D100BD38
:101CF00059030020580300205403002055030020FE
:101D0000570300200060004010B5012109043D4840
:101D100000F046F9002873D001210904394800F089
:101D200037F900286CD0002037490870354820303A
:101D30000079364908703648007800282ED035489A
:101D400035490978405C31490978884222D13248C6
:101D50000078401C3049087008460078772803DB7B
:101D600000202E4908704BE02A482B490978405C36
:101D70000D280BD0274828490978405C0A2805D04F
:101D8000244825490978405C002839D100202049A1
:101D9000087035E000202049087031E01B480078C9
:101DA00020280EDB194800787F280ADC17480078C5
:101DB0001B491C4A127888541A480078401C19495B
:101DC0000870124800787B2804D117480078401C1E
:101DD000154908700D4800787D2804D11348007813
:101DE000401C124908701048007810490978884250
:101DF00006D10D480078002802D000200C49087058
:101E000010BD00000060004054030020510300207A
:101E100055030020E8040020590300205703002048
:101E20000C0400205803002052030020530300201C
:101E30005603002070B50546002400201B49087099
:101E40001B49087001201B4908701B4908701B4979
:101E5000087007E0641C012001F0B2FDAC4201D91A
:101E6000002070BD134800780028F3D1002407E05B
:101E7000641C012001F0A4FDAC4201D90020F0E770
:101E80000B4800780028F3D00D4840698004C00F4B
:101E90000028EDD10648047803E0002009490855E0
:101EA000641CDB2CF9D30120DBE700005903002080
:101EB000580300205403002055030020570300203E
:101EC000006000400C04002000B587B00021684687
:101ED00001750221817500214175C17501210176CD
:101EE00005A90120FEF7EEFF0021684601750221D9
:101EF00081750121417500214176817605A9002077
:101F0000FEF7E0FFE12040020390012168460174E2
:101F10000021C171017201714171817101A90A48E9
:101F200000F050F80021084800F00AF900210648A6
:101F300000F0FCF80448006840084000401C0249DA
:101F40000860012007B000BD0064004000BF0549E3
:101F5000C9698904C90F0029F9D1024920390870DB
:101F6000704700004064004000B5024603E010786E
:101F7000FFF7ECFF521C10780028F8D100BF03488F
:101F800040698006C00F0028F9D100BD0064004000
:101F900002460020D3690B40002B00D0012070477F
:101FA0000246002093690B40002B00D001207047AF
:101FB000012A03D183690B43836102E083698B4368
:101FC00083617047F0B585B005460C460027207B3D
:101FD00001280ED1A1680801FEF740FD0390514889
:101FE0000068FEF73BFD02900399FEF743FC0746AD
:101FF00034E0207B02280ED1A1684801FEF72EFDB7
:10200000039048480068FEF729FD02900399FEF707
:1020100031FC074622E0207B03280ED1A16888010D
:10202000FEF71CFD03903F480068FEF717FD029085
:102030000399FEF71FFC074610E0207B04280DD112
:10204000A168C801FEF70AFD039036480068FEF754
:1020500005FD02900399FEF70DFC07463846FEF792
:10206000DFFB0022304B0191009002F0C7FB02D24F
:1020700000202D4902E03846FEF7D2FB0391029082
:10208000FEF790FB07468321C905384602F0E8FBBE
:102090000390FEF79FFC0646686807210902884303
:1020A000217B0902072212021140084368602E6159
:1020B00028680121490388432178490301225203FA
:1020C00011400843286028680F210902884361787D
:1020D00009020F22120211400843286028680121DA
:1020E00009038843A1780903012212031140084320
:1020F000286028680F2109068843E17809060F2225
:102100001206114008432860286801210907884306
:10211000217909070122120711400843286005B000
:10212000F0BD0000180200200000F03F10B542682A
:1021300030239A430B01302423401A43426010BDE0
:102140004268920892008B079B0F1A4342607047C7
:1021500070B50446A079002802D02068450108E047
:102160007D21C90014480068FEF76CFA21684843D5
:10217000054612480560806808218843A179C90096
:102180000822114008430D498860084680680221F2
:102190008843217949000222114008430749886099
:1021A000084680680421884361798900042211402F
:1021B00008430249886070BD18020020001C0040DE
:1021C00030B47446641E2578641CAB4204D3635D4E
:1021D0005B00E31830BC18471D46F8E7FFB581B037
:1021E000064617460020009033E0002404E000205B
:1021F0001B490855601CC4B2772CF8DB324619A184
:102200001748FEF791F81648FFF754FD0498FFF7BA
:1022100011FE0546012D16D1C82000F099F812488C
:102220000299FEF72DF9002802D0012005B0F0BD7B
:102230000E4800F08DF80C480299FEF721F90028AD
:1022400001D00120F2E700F013F80098401CC0B262
:102250000090791C00988842C7DB0020E6E7000068
:10226000E8040020257300000C04002088130000FF
:10227000002004E00021034A1154411C88B2DB28ED
:10228000F8DB70470C04002010B52D484069002889
:102290000CD1012001F075FD022001F072FD032038
:1022A00001F06FFD0120274908703BE000F0DEF9E6
:1022B00000280CD0012001F064FD022001F061FD36
:1022C000032001F05EFD01201E4908702AE000F0A5
:1022D000C1F900280BD001201A49087001F051FD06
:1022E000022001F04EFD032001F04BFD1AE01548DD
:1022F0000078002806D01248C06813490860002002
:1023000010490870032001F066FD022001F063FD12
:10231000012001F060FD0D480068C82802D20220AB
:1023200001F02FFD0648C06807490968401A0449B2
:10233000C969884202D9002001F023FD10BD0000C8
:10234000BC0300205C020020580200205402002040
:1023500010B50446204601F033FB10BD7047000065
:102360003EB50446002002900190009001201149E2
:102370000860002010490860082010498860104853
:10238000FFF7B1FB0DE00D480068C006C00F0290DA
:1023900001990298884204D00098401C009002984D
:1023A0000190044800680028EDD1009820600120C9
:1023B0003EBD000044030020400300200004004014
:1023C0000028004070B50025112119A000F084F804
:1023D0000646002E01D101F007F8C82001F0F0FAFE
:1023E0000025164C09E02078302803DB20783928B6
:1023F00000DC04E0641C681C85B2DB2DF3DB00BF4D
:10240000207830280FDB207839280CDC002505E007
:1024100021780B484155641C681C85B20F2DF7DBF1
:1024200000210748C173C82001F0CAFA70BD00003E
:1024300041542B47534E0D0A000000000C040020AD
:10244000DC03002070B506460D4632461AA11B4833
:10245000FDF76AFF00201A4908701A490870012028
:102460001949087019490870194908701949087004
:10247000002400BF641C012001F0A2FAAC4201D983
:10248000002070BD104800780028F3D1002400BF60
:10249000641C012001F094FAAC4201D90020F0E75D
:1024A0000B480078002800D1EBE70A4800780028A4
:1024B000EED10120E5E7000025730000E8040020CC
:1024C0005903002058030020540300205503002026
:1024D000570300205603002070B504460D462246DF
:1024E00011A11248FDF720FF2046FFF7E3FB002073
:1024F0000F4908700F49087008700D4908700120D5
:102500000D4908700D4908700D4908700A49087096
:1025100000BF094800780028FBD100BF04480078BC
:10252000A842FBDB012070BD25730000E8040020F9
:1025300058030020590300205403002055030020B5
:102540005703002070B58AB005460E4600BF00BF95
:1025500000BF00F0C5FF364800683C282DD300249A
:1025600009E03448FFF7FCFE32480068A1006A46E3
:102570005050601CC4B20A2CF3DB00F0B1FF002005
:102580002C490860002409E0A00069460858294940
:102590000968401827490860601CC4B20A2CF3DBA4
:1025A0000A2124480068FEF74DF8224908600020FF
:1025B0001F4908600120204908601F4800683C2826
:1025C0002DD3002409E01D48FFF7CAFE1B48006810
:1025D000A1006A465050601CC4B20A2CF3DB00F024
:1025E0007FFF002015490860002409E0A00069462B
:1025F000085812490968401810490860601CC4B2A4
:102600000A2CF3DB0A210D480068FEF71BF80B4982
:102610000860002008490860012005490860054855
:102620000068286005480068306001200AB070BD6D
:102630004402002048030020480200204C030020F0
:102640000349086000BF024909680029FBD17047AF
:1026500060020020044800680006C00F002801D076
:10266000012070470020FCE7000400400448006897
:10267000C005C00F002801D0012070470020FCE7F2
:10268000000400401CB5FFF7E5F9FFF787F90020CB
:102690000221034680220091019013A1134801F00A
:1026A00055FE00200321034680220091019010A1D5
:1026B000104801F04BFE00200421034680220091C7
:1026C00001900DA10D4801F041FE002005210346B7
:1026D0008022009101900AA10A4801F037FE01F022
:1026E0001DFA00BFFEE70000574454000D3D0000F6
:1026F000415050003D37000054696D00253C0000FA
:1027000054435000ED38000030B58FB005462D48D9
:102710000069002803D12B480069012802D000205D
:1027200028490861274A203227A12846FDF7FCFDE9
:1027300084B228A102A8FDF7F7FD001984B202A90E
:102740002846FDF7D3FE1F4800690246303224A117
:1027500002A8FDF7E9FD001984B202A92846FDF799
:10276000C5FE1848007DC007C00F303000901548E6
:10277000406902210840400803463033114840694F
:102780000421084080080246303218A102A8FDF753
:10279000CBFD001984B202A92846FDF7A7FE09481F
:1027A00040680090154803681548026815A102A802
:1027B000FDF7BAFD001984B202A92846FDF796FE7E
:1027C0000FB030BDBC0300207B22534E223A22259D
:1027D00073222C0022434D44223A223031222C0015
:1027E0002254595045223A25632C00002256532288
:1027F0003A22256325632563222C00005402002021
:10280000500200202254445331223A25752C225480
:10281000445332223A25752C2246223A25757D00F2
:10282000F1B586B000250020049000260390002713
:1028300002900190009006980590824882490860B5
:1028400000208249C8608049086081A10598FDF791
:1028500017FE041E04D0A0793038C0B2049003E003
:102860006806050E0120054305947BA10598FDF738
:1028700007FE041E11D00026641D2078312801D1E6
:10288000301DC6B26078312801D1B01CC6B2A07824
:10289000312806D1701CC6B203E06806050E01207F
:1028A000054305946DA10598FDF7EAFD041E18D0B7
:1028B000E41C0020039012E0207830280EDB207802
:1028C00039280BDC0A2103984843039020783038DC
:1028D00003994018C0B20390641C00E000E0EBE7ED
:1028E00003E06806050E0120054305945CA10598E8
:1028F000FDF7C6FD041E15D0241D002710E020782A
:1029000030280CDB2078392809DC38460A21484376
:10291000074620783038C019C7B2641C00E000E0D8
:10292000EDE703E06806050E0120054305944DA17F
:102930000598FDF7A5FD041E17D0241D0020029068
:1029400011E0207830280DDB207839280ADC0A21B4
:10295000029848430290207830380299401802903B
:10296000641C00E000E0ECE703E06806050E0120CF
:10297000054305943CA10598FDF782FD041E17D080
:10298000241D0020019011E0207830280DDB2078F4
:1029900039280ADC0A210198484301902078303810
:1029A000019940180190641C00E000E0ECE703E0AE
:1029B0006806050E0120054305942CA10598FDF736
:1029C0005FFD041E17D0241D0020009011E0207828
:1029D00030280DDB207839280ADC0A21009848438A
:1029E000009020783038009940180090641C00E076
:1029F00000E0ECE703E06806050E01200543002D2A
:102A00001ED10498C0B21A490861F0B24861039817
:102A1000C0B28861F8B2C861029808600198C860C5
:102A20000098886014211248FEF7B2F90A20FFF7D7
:102A30008FFC14210E48FEF7ABF9012007B0F0BD62
:102A40000020FBE751E5CC1A001D0040001C0040AF
:102A50005459504500000000565300005400000037
:102A600046540000534600005254000045540000F4
:102A7000BC030020F8B505460E46174807681748FE
:102A80000068001D00F046FE681C002808D1002EDA
:102A900006D012480168091D114800F0A4FE1AE092
:102AA0007C190E4800684460BC4207D20B4801689C
:102AB000091D0C48006800F07BFE0CE00748016827
:102AC000091D0948006800F073FE08480068844248
:102AD00001D206480460F8BD78030020640300209A
:102AE000001400206C0300206803002094030020E1
:102AF00010B5044600F084FE22480068401C2149BD
:102B0000086021480068002808D11F480460084672
:102B1000006801280ED100F0B9F90BE01B480068ED
:102B2000002807D118480068C06AE16A884201D8C5
:102B30001548046016480068401C1549086008469E
:102B4000006820641349E06A0968884202D9114983
:102B5000E06A08601422E16A51430F4A8818211D77
:102B600000F041FE00F05AFE08480068002807D037
:102B700005480068C06AE16A884201D200F06EFE32
:102B800010BD0000740300206403002080030020B7
:102B9000900300207C0300204C13002010B500F0AF
:102BA0002FFE1148006800281BD1104800F0F0FDEE
:102BB0000F4800F0EDFD0D480E4908600C480E4925
:102BC000086000220C21012001F04CF90649086040
:102BD00008460068002804D008A10348006800F0F7
:102BE00049FE00F01BFE10BDA803002014140020B5
:102BF00028140020A0030020A4030020546D72516B
:102C00000000000070B525E000F0C4FF1448006823
:102C1000002801D1012000E00020054601F002FD5E
:102C2000002D17D100F0ECFD0D48C068C468201DD0
:102C300000F070FD0B480068401E0A4908600A4811
:102C40000068401E0849086000F0E8FD204600F0DA
:102C500063F800BF044800680028D5D170BD0000AB
:102C6000EC130020740300207003002070B50446AC
:102C70000D46206C00280ED0216CE0684018E06002
:102C80006168E068884201D32068E0602846226CD1
:102C9000E168FDF737FC70BDF8B504460F461546F0
:102CA00000200090A66B206C002809D12068002825
:102CB0002ED1606801F02EFC00900020606027E0BB
:102CC000002D0FD13946226CA068FDF71BFC216C4A
:102CD000A0684018A0606168A068884218D3206886
:102CE000A06015E03946226CE068FDF70BFC216C12
:102CF000E068401AE0602168E068884203D2216CF5
:102D00006068401AE060022D02D1002E00D0761ECD
:102D1000701CA0630098F8BD10B50446206B00F04D
:102D200091FD204600F08EFD10BD00000146094ACD
:102D300012681268002A01D1012200E000220A6014
:102D40000A68002A04D1034A1268D268106800E0B9
:102D500000207047A003002000BFFFF753FF034887
:102D600000680128F9D900F079FDF6E74C1300203E
:102D7000FFB581B006460D4617460A9C002D01D1CD
:102D8000246000E02760E66325640121204601F00D
:102D900057F94C210498085505B0F0BDFFB581B036
:102DA0000F460A9E0C9C039A9100A522206BFDF70A
:102DB000EAFB216B0398401E8000081800900098E1
:102DC000C008C000009000984007400F002801D1C3
:102DD000012000E00020002802D172B600BFFEE70B
:102DE000002508E0795D204634304155785D0028A3
:102DF00000D102E06D1C0A2DF4D300BF00213D205C
:102E00000155052E00D30426E662A6640020E06486
:102E1000201D00F0CAFC2046183000F0C6FC2461DA
:102E20000520801BA06164620020206500215420E1
:102E30000155049A0199009800F0B2FA20600B98AD
:102E4000002801D00B98046005B0F0BDFFB581B03B
:102E500006460D4617460B9C002D01D0012000E0D0
:102E60000020002802D172B600BFFEE7002C0BD074
:102E7000FFF794FE2660A561E761049820620A9836
:102E80006062201D00F091FC05B0F0BD10B500247B
:102E900006E0142161430E4A881800F079FC641C96
:102EA000052CF6D30B4800F073FC0B4800F070FCC7
:102EB0000A4800F06DFC0A4800F06AFC094800F07E
:102EC00067FC04480849086003480849086010BDC9
:102ED0004C130020B0130020C4130020D81300208E
:102EE000EC13002000140020680300206C03002075
:102EF000F8B504460D4616461F4600200090656052
:102F00002461B5420CD8F01BA169884202D301208C
:102F1000009011E0211D0948006800F049FC0BE019
:102F2000BE4204D2BD4202D30120009004E0211D24
:102F30000348006800F03CFC0098F8BDA4030020A2
:102F4000A003002070B5054600F05AFCA86B0028CD
:102F500001D1012400E0002400F060FC204670BD97
:102F600070B5054600F04CFCA86BE96B884201D1B6
:102F7000012400E0002400F051FC204670BD000058
:102F8000F8B505460F4613480068C068C468201DA0
:102F900000F0C0FBE069012817D1A06941192B4658
:102FA0003A462046FFF7A4FF00280ED00020034633
:102FB0002A4601460090204601F0E6FB0646002E18
:102FC00002D172B600BFFEE700BF2046616A8847A3
:102FD000F8BD0000A003002070B586B060E0039843
:102FE00000285DDB059C6069002801D1012000E01C
:102FF0000020002802D1201D00F08CFB02A800F068
:10300000AFF8054603980300FFF7DAF80A0A060846
:103010002C2E4407092D2F4800BF00BF00BF00BF62
:103020000498A269811803462A462046FFF760FFEC
:10303000002816D02046616A8847E069012810D12F
:10304000002000900498A1694218002319462046E8
:1030500001F09AFB0646002E02D172B600BFFEE7D1
:1030600000BF1CE000BF1AE000BF0498A061A06987
:10307000002801D0012000E00020002802D172B613
:1030800000BFFEE7A06941192B462A462046FFF7FC
:103090002FFF04E0204600F0D5FB00E000BF00BF9A
:1030A00000231A4603A90448006800F003FF002823
:1030B00095D106B070BD0000A8030020F8B5054604
:1030C0000C4600F067FD684600F04AF80646009896
:1030D000002822D1002C08D1B54206D801F0A2FA6E
:1030E00031462846FFF74CFF19E0002C08D00C4869
:1030F00000680068002801D1012000E0002004469B
:10310000A91B22460748006800F0CAFB01F08AFAB2
:10311000002804D100F0A2FB01E001F083FAF8BD21
:10312000A4030020A80300200B49096809680029AE
:1031300001D1012100E00021002904D00021C94370
:10314000064A116006E004490968C968C868034A6C
:10315000416811607047000068030020940300205C
:1031600070B5044601F032F905460748006885420B
:1031700004D200F01DF80120206001E00020206052
:1031800001480560284670BDB003002010B57D21C0
:10319000C90005480068FDF755FA401E034948611B
:1031A0000720086110BD00001802002000E000E0C8
:1031B000FEB52BE020480068C06805681E4800681E
:1031C000C068C468201D00F0A5FA2046616A8847DF
:1031D000E06901281AD1A0694619AE4207D9666094
:1031E0002461211D1448006800F0E2FA0EE000207E
:1031F00003462A4601460090204601F0C5FA0746DC
:10320000002F02D172B600BFFEE700BF0A48006877
:103210000068002801D1012000E000200028C9D06A
:1032200005480068019005480068034908600349A3
:1032300001980860FEBD0000A0030020A403002048
:1032400007480068401C002801D1012000E0002050
:10325000002802D172B600BFFEE772B600BFFEE7DB
:10326000B403002008B500BF6846FFF75FFD0446C1
:1032700020460099FFF722FFFFF7AEFEF4E770B596
:10328000044600F0BDFA4520055713E0606A0028A7
:1032900001D1012000E00020002808D12046243080
:1032A00001F07CF9002803D000F0ACFB00E003E063
:1032B000681E45B2002DE9DC00BF0021C94345204E
:1032C000015500F0ABFA00F09BFA4420055713E0DB
:1032D0002069002801D1012000E0002000280AD147
:1032E0002046103001F05AF9002801D000F08AFB86
:1032F000681E45B200E001E0002DE9DC00BF0021BE
:10330000C9434420015500F089FA70BD70B50446E8
:1033100000256007400F002804D06007400F0821F7
:10332000081A041900F036FC11480068002804D17E
:103330001048C008C0000E4908600F480068001916
:103340000E49884210D20C48006800190A490968E1
:10335000884209D90648006807490968451806489F
:10336000006800190449086001F05CF9284670BD46
:1033700060030020680500205C030020A40D00000D
:1033800006480068002806D00449096808464C3001
:10339000C96C491C01600148006870476403002043
:1033A000001F01231B060360001F0160001F034B69
:1033B000036014380260203870470000413200007A
:1033C00010B514221121C9020648FDF7E7FCC820F8
:1033D000FEF7BEFF14221121C9020248FDF7DEFCF0
:1033E00010BD0000BC03002010B5012000070F49EC
:1033F000C86014210E48FDF7CBFC0E48FFF720F9FA
:1034000014210B48FDF7C4FC0B48FFF719F9012004
:103410000007064988600748FFF712F90548FFF7DB
:103420000FF90448FFF70CF910BD0000000400403C
:10343000BC03002088130000DC05000010B58AB032
:103440001F48406904210840002802D1012000F0F3
:1034500098FC1B48406902210840002802D1022044
:1034600000F08FFC1648007DC007C00F002802D175
:10347000032000F086FC12480069012801D100F009
:1034800009F90F480069002801D100F023F9FEF77F
:1034900065FF04460B490C48FFF754F809480368D8
:1034A0000948026809A16846FCF73EFF6846FEF736
:1034B0005BFD034840680019014948600AB010BD2F
:1034C000BC030020540200205002002074647331B9
:1034D0003D25752C746473323D25750D0A0000007E
:1034E0000C200149C86070470004004070B50546D3
:1034F000002449494948FCF7F9FF012000074849E1
:10350000C8610846406905214906084344494861A5
:103510000846406B05214906884341494863C82055
:1035200000F04EFA012000073D4988603D4800F058
:1035300047FA02E00A2000F043FA394800688001A7
:10354000C00F0028F6D1002400BF3748FEF7B2FBB9
:10355000642000F035FA7D21090134A0FEF772FFE6
:10356000002804D1601CC4B2052C00DAEDE7314814
:1035700000F026FA7D20C00000F022FAFEF778FE67
:103580002948FEF797FB7D20C00000F019FA64205F
:1035900000F016FA0024274B0A2227A12748FEF73D
:1035A0001DFE002801D1FFF71FFF224B052222A19B
:1035B00023A0FEF713FE002801D1601CC4B21D4BEE
:1035C00005221DA12248FEF709FE002801D1601C3A
:1035D000C4B2184B052218A11EA0FEF7FFFD00285B
:1035E00001D1601CC4B2002C01D0FFF7FDFE1148D0
:1035F00000F0E6F90B4800F0E3F91C48FEF75AFB2F
:103600007D20000100F0DCF9FEF7DCFE7D20C0002B
:1036100000F0D6F970BD0000EC030020D0020020BD
:1036200000040040B80B0000640200205265616491
:1036300079000000881300004F4B00006902002051
:1036400041542B434D4744413D360D0A00000000D4
:103650009C02002041542B434D4744413D224445A8
:103660004C20414C4C220D0A00000000FE020020BC
:103670000748C0690C2108430549C86130204861EA
:103680000846406B30218843014948637047000079
:103690000004004010B50D4840680C490968884294
:1036A00012D30B480068002000F06BFB0020074994
:1036B000486114210548FDF76BFB4620FEF748FEE4
:1036C00014210248FDF764FB10BD0000BC0300207C
:1036D0004002002010B50D48C0680C498968884236
:1036E00012D30B480068002000F04BFB0020074974
:1036F000486114210548FDF74BFB4620FEF728FEE4
:1037000014210248FDF744FB10BD0000BC0300205B
:103710004002002001460A694B68886898608B68FF
:10372000486858605068884201D18868506000201D
:1037300008611068401E1060106870470120104931
:10374000086000200F49086019E01D210E4800683C
:10375000FCF778FF00290AD114210C48FDF718FB6B
:103760004620FEF7F5FD14210848FDF711FBFFF791
:1037700065FEFEF789FDFF202D3000F021F9E4E71A
:10378000440200204802002040020020BC03002028
:103790000146083141600021C9438160014608317A
:1037A000C160016100210160704700210161704723
:1037B00010B502460B685C1C002C01D1106907E0B3
:1037C0001046083000E04068446824689C42FAD9FA
:1037D00044684C604C68A160886041600A6114686C
:1037E000641C146010BD42684A6093688B609368E3
:1037F00059609160086103685B1C036070470000BA
:1038000072B605480068401C03490860BFF34F8F3B
:10381000BFF36F8F70470000B403002008480068B2
:10382000002802D172B600BFFEE705480068401EBE
:103830000349086008460068002800D162B6704756
:10384000B4030020002801D1012100E0002100295B
:1038500002D172B600BFFEE77047000001200007EA
:1038600003494860BFF34F8FBFF36F8F704700006D
:1038700000ED00E010B5024600200BE0C300074C4D
:10388000E358002B05D1C300E150C3001B195A6057
:1038900002E0401C0828F1D300BF10BD0C1300202B
:1038A000F8B505460E4617462C46FFF7A9FF4421FA
:1038B0000857401C002802D1002144200155452111
:1038C0000857401C002802D1002145200155FFF770
:1038D000A5FFA06B002805D13A463146204624308A
:1038E00000F0ACF82046FFF7CAFCF8BD0025002424
:1038F000FFF766FD2E488069782802D93C202C49C4
:10390000886100240CE02A483030005D202804DB68
:1039100027483030005D7F2801DD681CC5B2641C7B
:10392000052CF0D3002D05D0224A23A120483030A9
:10393000FCF7FAFCE1204002FFF7D8FD37E01F4812
:10394000FEF7E2FE0025FDF7FDFE00BFFEF7DCF806
:1039500000280FD1FDF79CFFFDF7AAFF012801D138
:10396000012500E0641C052C05D9FDF7EBFEFFF7EF
:103970003BFD00E00125002D0FD000250024FEF7BF
:1039800077FC0E48FEF7C0FEFEF7DAF8012803D1F7
:103990000A48FEF745FF00E0641C002605E07D2094
:1039A000C00000F00DF8701CC6B20F2EF7DBC6E7A2
:1039B000BC0300201C020020257300000C04002022
:1039C00070B504460025002C14D00D48006800286E
:1039D00001D1012000E00020002802D172B600BF12
:1039E000FEE700F0D7F800212046FFF743F800F08B
:1039F00019FE0546002D01D1FFF730FF70BD000014
:103A00009C030020012001490860704788030020C2
:103A100070B504460D46002C02D172B600BFFEE719
:103A20000548016818312046FFF7C2FE01212846EB
:103A3000FFF720F870BD00006403002070B5054654
:103A40000E461446002D02D172B600BFFEE70748AD
:103A5000016818312846FFF7C6FE002C01D0002669
:103A6000F64321463046FFF705F870BD6403002099
:103A700070B505462C46002D39D01D49E06A09680D
:103A8000C96A884233D2A069C00FC007002805D197
:103A900017480068C06A0521081AA0611422E06A6C
:103AA0005043144A80186169814201D1012000E02D
:103AB0000020002817D0201DFFF72CFE0C480068BE
:103AC000C06AE0620C49E06A0968884202D90A4982
:103AD000E06A08601422E16A5143064A8818211DF1
:103AE000FFF781FE03E002480068C06AE06270BD33
:103AF000640300204C1300207C030020002802D126
:103B000072B600BFFEE7034909680160024909680F
:103B1000416070478C030020780300201CB51648D4
:103B200000210B4646220091019014A1154800F097
:103B30000DFC0446012C02D100F002FE0446012CCB
:103B40000DD172B60020C0430F49086001200F4913
:103B5000086000200E49086000F068F90AE0601C67
:103B6000002801D0012000E00020002802D172B618
:103B700000BFFEE71CBD00009803002049444C45EF
:103B800000000000592D0000940300208003002055
:103B90007803002002480068401C01490860704713
:103BA0009C0300201A480068002803D0012019490E
:103BB00008602CE00020174908601748016805E0FC
:103BC000002902D172B600BFFEE7491E1420484307
:103BD000124A1058002801D1012000E000200028DE
:103BE000EED114224A430D4BD0184268526842600D
:103BF000024608324368934202D1426852684260EA
:103C00004268D268064B1A600348016000BF7047E3
:103C10009C030020880300207C0300204C1300201C
:103C20006403002008B51048002301227D21C9004B
:103C300000900EA000F06EFD0F4908600846006875
:103C400000280BD000F0C2FB0446002003462246A9
:103C5000012100900848006800F096FD03E07D20F7
:103C6000C000FFF7ADFEFAE77D3C00004D797469B6
:103C70006D657231000000003802002010B5044666
:103C800019480068401C1849086018A0FEF76CF934
:103C90001A48C068401C1949C860134800683C288D
:103CA00007D300201049086015480068401C1449DB
:103CB0000860134800683C2802D3002010490860BF
:103CC00010480068002804D00E480068401C0D49C8
:103CD00008600D480068002804D00B480068401CAC
:103CE0000949086010BD00003C02002074696D6540
:103CF00072207461736B0D0A00000000BC03002089
:103D0000400200204402002048020020012410E06C
:103D100008480949086000200849C8600649086049
:103D2000012C01D1002400E00124FF20F530FFF731
:103D300047FEEDE751E5CC1A001D0040001C004095
:103D40001CB500216846017081704170C17001711D
:103D500069461920FDF7B6F869461A20FDF7B2F852
:103D600069461B20FDF7AEF800211920FDF7C4FCC1
:103D700000211A20FDF7C0FC00211B20FDF7BCFC30
:103D80001CBD10B50446002C06D0012C11D0022C0D
:103D900014D0032C1CD116E000211920FDF7ACFC37
:103DA00000211A20FDF7A8FC00211B20FDF7A4FC30
:103DB0000FE000211920FDF79FFC0AE000211A20E6
:103DC000FDF79AFC05E000211B20FDF795FC00E0C3
:103DD00000BF00BF10BD10B50446002C06D0012C5A
:103DE00011D0022C14D0032C1CD116E00121192073
:103DF000FDF782FC01211A20FDF77EFC01211B202A
:103E0000FDF77AFC0FE001211920FDF775FC0AE0AF
:103E100001211A20FDF770FC05E001211B20FDF7B0
:103E20006BFC00E000BF00BF10BD000010B50B48E8
:103E3000006AFF2109040843084908620846006A2D
:103E4000FF210906084305490862FFF79FF9002092
:103E500003490860FCF798F9002010BD00ED00E070
:103E6000B4030020F7B582B005460E46002D01D000
:103E7000012000E00020002802D172B600BFFEE75A
:103E8000002E01D1002701E02F46774338465030FD
:103E9000FFF73CFA0446002C09D020465030019030
:103EA000009431462846049B019AFEF761FF2046A4
:103EB00005B0F0BDFFB585B005460E460020049064
:103EC0002C46002C02D172B600BFFEE7002E02D1B4
:103ED000206C002801D1012000E00020002802D140
:103EE00072B600BFFEE700F05FFA002802D1079823
:103EF000002801D1012000E00020002802D172B684
:103F000000BFFEE700BFFFF77BFCA06B01900198AC
:103F1000002837D0E76831462046FEF7A7FE08980C
:103F2000002819D10198401EA0632068002802D102
:103F3000FFF726FA60602069002801D1012000E027
:103F40000020002819D12046103000F027FB00285F
:103F500013D0FFF783FC10E0E760606A002801D10E
:103F6000012000E00020002807D12046243000F086
:103F700015FB002801D0FFF771FCFFF74FFC012073
:103F800009B0F0BD0798002803D1FFF747FC0020D7
:103F9000F6E70498002804D102A8FFF7AFFD01203E
:103FA0000490FFF73BFCFFF7F5FDFFF729FC4421E8
:103FB0000857401C002802D100214420015545210A
:103FC0000857401C002802D1002145200155FFF769
:103FD00025FC07A902A800F07FF9002824D120467B
:103FE000FEF7B0FF002819D02068002806D1FFF79F
:103FF00007FC6068FFF73CFDFFF710FC204624300B
:104000000799FFF705FD2046FFF739F900F00AFB95
:10401000002800D077E7FFF721FC74E72046FFF780
:104020002EF900F0FFFA6EE72046FFF728F900F0BE
:10403000F9FA2046FEF786FF0028EBD000209FE724
:1040400070B505460E462C46002C02D172B600BF54
:10405000FEE7FFF7D5FB216CE06B48432168401871
:1040600060600020A0632068A060E06B401E216CAF
:10407000484321684018E0600021C94344200155AD
:1040800045200155002E10D12069002801D10120C2
:1040900000E00020002810D12046103000F07EFA09
:1040A00000280AD0FFF7DAFB07E020461030FFF7C0
:1040B0006FFB20462430FFF76BFBFFF7AFFB0120BF
:1040C00070BDFFB583B006461D4600200290344601
:1040D000002C02D172B600BFFEE70498002802D17E
:1040E000206C002801D1012000E00020002802D12E
:1040F00072B600BFFEE7022D02D1E06B012801D1AC
:10410000012000E00020002802D172B600BFFEE7C7
:1041100000F04AF9002802D10598002801D10120B9
:1041200000E00020002802D172B600BFFEE700BF09
:10413000FFF766FBA06BE16B884201D3022D1FD114
:104140002A4620460499FEF7A7FD0746606A002824
:1041500001D1012000E00020002808D120462430B1
:1041600000F01CFA002806D0FFF778FB03E0002FD0
:1041700001D0FFF773FBFFF751FB012007B0F0BD43
:104180000598002803D1FFF749FB0020F6E70298C5
:10419000002804D16846FFF7B1FC01200290FFF728
:1041A0003DFBFFF7F7FCFFF72BFB44210857401CB2
:1041B000002802D100214420015545210857401C08
:1041C000002802D1002145200155FFF727FB05A952
:1041D000684600F081F8002819D12046FEF7C0FE9D
:1041E00000280ED0204610300599FFF711FC20461C
:1041F000FFF745F800F016FA002899D1FFF72EFBDB
:1042000096E72046FFF73BF800F00CFA90E72046CF
:10421000FFF735F800F006FA0020AFE7FFB583B0EE
:10422000064617461D463446002C02D172B600BF22
:10423000FEE70498002802D1206C002801D101205B
:1042400000E00020002802D172B600BFFEE7022D78
:1042500002D1E06B012801D1012000E000200028FC
:1042600002D172B600BFFEE7FBF7A2FF0190A06B80
:10427000E16B884201D3022D26D1452001570091E0
:104280002A4620460499FEF707FD0098401C0028A6
:1042900012D1606A002801D1012000E0002000282E
:1042A0000FD12046243000F079F9002809D0002FE2
:1042B00007D00120386004E00098401C41B245203E
:1042C00001550120029001E0002002900198FBF7C7
:1042D00073FF029807B0F0BD70B504460D46002C80
:1042E00002D172B600BFFEE7002D02D172B600BF48
:1042F000FEE7FFF785FA134802682868401C00288B
:1043000001D1002619E0104920680968884204D0CC
:104310006068904201D801260FE06068101A296891
:10432000884209D228686168511A401A28602046DC
:10433000FFF7E4FB002600E00126FFF76FFA3046A6
:1043400070BD0000780300208C030020FFB585B00D
:104350001746B800FEF7DAFF0646002E0BD05820AD
:10436000FEF7D4FF0446002C01D0266304E030465B
:10437000FFF768FA00E00024002C10D000220F990B
:104380000E986B4613C303923A46089B069905980C
:10439000FEF704FD2046FEF7ABFB012501E00025FA
:1043A000ED43284609B0F0BD06490968002901D14E
:1043B000012006E004490968002901D1022000E03B
:1043C00000207047800300209C03002001490868FA
:1043D0007047000078030020F8B5002000904248A4
:1043E0000068002872D141480068451C3F480560BC
:1043F000002D1CD13E4800680068002801D1012032
:1044000000E00020002802D172B600BFFEE7384865
:1044100007683848006836490860364807603648FB
:104420000068401C34490860FEF77EFE00BF334838
:10443000006885423DD300BF2D4800680068002811
:1044400001D1012000E00020002804D00020C0435A
:104450002A4908602CE026480068C068C46866687D
:10446000B54202D22548066022E0201DFFF752F92E
:10447000A06A002803D020461830FFF74BF92049E6
:10448000E06A0968884202D91D49E06A086014227E
:10449000E16A51431B4A8818211DFFF7A4F91A4904
:1044A000E06A0968C96A8842C6D301200090C3E760
:1044B00000BF15480068C06A1421484311490858D4
:1044C000012801D90120009005E0FFE70F480068AE
:1044D000401C0E4908600E480068002801D00120E9
:1044E00000900098F8BD00009C0300207803002095
:1044F000680300206C0300208C030020940300203C
:104500007C0300204C13002064030020840300205F
:104510008803002070B505462C460026002D35D0B6
:104520001B480068844201D1012000E000200028DF
:1045300002D172B600BFFEE7E06C002802D172B66D
:1045400000BFFEE7E06C401EE064A16CE06A8842B8
:104550001CD0E06C002819D1201DFFF7DBF8A06CFF
:10456000E0620521E06A081AA0610A49E06A096868
:10457000884202D90749E06A08601422E16A51437F
:10458000054A8818211DFFF72EF90126304670BD17
:10459000640300207C0300204C13002070B5064605
:1045A000F068C468002C02D172B600BFFEE7204656
:1045B0001830FFF7AFF815480068002813D1201D08
:1045C000FFF7A8F81249E06A0968884202D9104941
:1045D000E06A08601422E16A51430E4A8818211DDE
:1045E000FFF701F904E0214618310B48FFF7FBF80B
:1045F0000A49E06A0968C96A884204D9012501208C
:104600000749086000E00025284670BD9C03002093
:104610007C0300204C130020D813002064030020EA
:104620008803002070B50024002632480068002866
:1046300002D172B600BFFEE7FFF7E2F82D4800682E
:10464000401E2C4908600846006800284DD12A48C1
:104650000068002849D022E02848C068C468204685
:104660001830FFF757F8201DFFF754F82449E06A87
:104670000968884202D92249E06A08601422E16A86
:104680005143204A8818211DFFF7ADF81E49E06A02
:104690000968C96A884202D301201C49086017488A
:1046A0000068002801D1012000E000200028D3D0BC
:1046B000002C01D0FEF738FD15480568002D0DD0FF
:1046C00000BFFFF789FE002802D001200F490860D3
:1046D0006D1E002DF5D100200D4908600B480068C3
:1046E000002802D00126FFF7B9F8FFF797F8304607
:1046F00070BD00009C03002074030020D81300202C
:104700007C0300204C130020640300208803002059
:1047100084030020FFB583B005460E460C9F2C2075
:10472000FEF7F4FD0446002C07D0009701943146B3
:104730002846069B059AFEF789FB204607B0F0BD88
:104740001CB50024FEF72AFA0A48006800280AD09F
:1047500009480421002337220091019007A109484C
:10476000FFF7F4FD0446002C02D172B600BFFEE74D
:1047700020461CBDA8030020AC030020546D72200D
:104780005376630065320000F0B585B004460D46EF
:1047900016461F4600200390002C02D172B600BFBF
:1047A000FEE715480068002822D000950196029483
:1047B000062D15DAFFF7F8FD022808D10023694617
:1047C0000D480A9A0068FFF77CFC039010E0002374
:1047D0001A46694608480068FFF773FC039007E033
:1047E00000233A46694604480068FFF717FD039026
:1047F000039805B0F0BD0000A803002070B50125A6
:104800000C002D051C4310D4EC4206D4AC420AD453
:10481000994200D070BD904270BDE94217D4EB427E
:1048200015D4994270BD894270BDEC4206D5AC42A8
:10483000F9D58B4200D070BD824270BD6D004C0036
:10484000EC4204D25C00EC4201D28B4270BD034CBE
:1048500030B4FCF7A7F930BC70BD00BF19001604D6
:1048600070B5420064414B005C41120E39D01B0E02
:1048700038D0FF2A3CD0FF2B3AD040024902400AF0
:10488000490A060045184E43000A090AD21848434F
:10489000ED017F3A0104731A4019190C4318990F5E
:1048A00004D001215B0849075B1A521CD80904D3C4
:1048B000401CF50301D19D0607D0FF2A08D2D5057B
:1048C00006D0E4072043401970BD0125A843F4E752
:1048D000002A01DCE00770BD2402FF202043C00550
:1048E00070BD1B0EFF2A03D0FF2B01D0E00770BD67
:1048F000FF2645003606B54206D84D00B54203D81E
:10490000D218FF2A00D0E7E7004870BD0000C07F42
:104910008182838485868788898B8C8D8E8F919206
:1049200093959697999A9C9D9FA0A2A3A5A7A8AAA4
:10493000ACAEB0B2B3B5B7B9BCBEC0C2C5C7C9CCC6
:10494000CED1D4D7D9DCDFE2E6E9ECF0F3F7FAFE1A
:10495000804900000000002018020000040100004F
:10496000984B000018020020A40100003A0D00003E
:10497000404C0000BC030020E414000020010000B3
:1049800003B40148019001BD3902000003B401489D
:10499000019001BD3D02000070B503460C461E4665
:1049A0002546002A01D1002070BD002105E02868BD
:1049B0003060361D2D1D481CC1B29142F7DB01202D
:1049C000F2E70000A520124A106110460068400876
:1049D0004000401C106010460068102290431030C8
:1049E0000B4A1060002108E0094800688006C00FEB
:1049F000002800D004E0481C81B206488142F3DB65
:104A000000BF0448814201D0012070470020FCE72C
:104A100000080040FFFF000070B503460C46234825
:104A200040683F25AD02A843A5023F26B6023540A7
:104A300028431E4D686028464068FF25AD00A84306
:104A40009D00FF26B60035402843184D6860284673
:104A500082601748E860002108E014484069C007F8
:104A6000C00F002800D104E0481C81B211488142E7
:104A7000F3DB00BF0F48814201D1002070BD00214F
:104A800008E00A4840694007C00F002800D004E051
:104A9000481C81B207488142F3DB00BF05488142D0
:104AA00001D10020EAE70120E8E70000000800400B
:104AB000A25D0000FFFF0000A5200E4A1061104615
:104AC0000068102290430B4A1060002107E009485B
:104AD00000688006C00F002800D103E0491C06488A
:104AE0008142F4D300BF0448814201D001207047C5
:104AF0000020FCE700080040FFFF0000F8B5044676
:104B00000D46164600BFEFF310800746FFF738FF4B
:104B1000FFF758FF002800D111E032462946204611
:104B2000FFF77AFF002800D109E0FFF7C5FF002852
:104B300000D104E0384600F02BF80120F8BD3846DB
:104B400000F026F8FFF722FF0020F7E7F3B581B069
:104B500005462F460D48281A8003040C2046E1170D
:104B6000890F09188C1000260AE0A119C8B2222169
:104B70003A68FFF7C3FF012802D1701C86B23F1DBF
:104B800002988642F1DB0120FEBD0000BC0300203C
:104B900080F3108870470000111324F4901C223118
:104BA00034302E3134332E3138372E313235222CF9
:104BB000223131323232220D0A5A010401146918AD
:104BC0001B415431780A41542B434D47463D300C2C
:104BD000280E4C3D2252454320554E5245414454E7
:104BE000291768094E4D493D2247534D1029335A24
:104BF000310C680B5354543D22434D4E45541E6DA9
:104C0000494943520B7B46530B1E50535441522C7F
:104C1000061C544350222C592E7C52495065190FC2
:104C20007C454E440D8E434C4F53451B2B4855CC71
:104C30000110CB6A18F81901015C1AAA01410000A1
:04000005000000C136
:00000001FF
